{
    "contractName": "LegalRecords",
    "abi": [
        {
            "anonymous": false,
            "inputs": [
                {
                    "indexed": true,
                    "internalType": "address",
                    "name": "user",
                    "type": "address"
                },
                {
                    "indexed": false,
                    "internalType": "string",
                    "name": "content",
                    "type": "string"
                }
            ],
            "name": "RecordAdded",
            "type": "event"
        },
        {
            "anonymous": false,
            "inputs": [
                {
                    "indexed": true,
                    "internalType": "address",
                    "name": "user",
                    "type": "address"
                },
                {
                    "indexed": false,
                    "internalType": "string",
                    "name": "content",
                    "type": "string"
                }
            ],
            "name": "RecordRetrieved",
            "type": "event"
        },
        {
            "inputs": [
                {
                    "internalType": "string",
                    "name": "content",
                    "type": "string"
                }
            ],
            "name": "addLegalRecord",
            "outputs": [],
            "stateMutability": "nonpayable",
            "type": "function"
        },
        {
            "inputs": [
                {
                    "internalType": "uint256",
                    "name": "index",
                    "type": "uint256"
                }
            ],
            "name": "getLegalRecord",
            "outputs": [
                {
                    "internalType": "string",
                    "name": "content",
                    "type": "string"
                }
            ],
            "stateMutability": "view",
            "type": "function"
        },
        {
            "inputs": [],
            "name": "getLegalRecordsCount",
            "outputs": [
                {
                    "internalType": "uint256",
                    "name": "",
                    "type": "uint256"
                }
            ],
            "stateMutability": "view",
            "type": "function"
        }
    ],
    "bytecode": "608060405234801561001057600080fd5b506105ad806100206000396000f3fe608060405234801561001057600080fd5b50600436106100415760003560e01c80633ec32efb146100465780634b0772bf1461006f578063f2f673a914610084575b600080fd5b6100596100543660046102ea565b6100a2565b6040516100669190610303565b60405180910390f35b61008261007d366004610367565b6101e8565b005b33600090815260208190526040902054604051908152602001610066565b3360009081526020819052604090205460609082106100ff5760405162461bcd60e51b8152602060048201526014602482015273092dcecc2d8d2c840e4cac6dee4c840d2dcc8caf60631b60448201526064015b60405180910390fd5b33600090815260208190526040812080548490811061012057610120610418565b90600052602060002090600202016040518060400160405290816000820180546101499061042e565b80601f01602080910402602001604051908101604052809291908181526020018280546101759061042e565b80156101c25780601f10610197576101008083540402835291602001916101c2565b820191906000526020600020905b8154815290600101906020018083116101a557829003601f168201915b5050509183525050600191909101546001600160a01b0316602090910152519392505050565b60008151116102395760405162461bcd60e51b815260206004820152601e60248201527f5265636f726420636f6e74656e742063616e6e6f7420626520656d707479000060448201526064016100f6565b60408051808201825282815233602080830182905260009182528181529281208054600181018255908252929020815191928392600290910290910190819061028290826104b7565b5060209190910151600190910180546001600160a01b0319166001600160a01b0390921691909117905560405133907f44626cfec8a165f72396cc5e247c6b96279f8c205a8d07c390df7aa5806205fa906102de908590610303565b60405180910390a25050565b6000602082840312156102fc57600080fd5b5035919050565b600060208083528351808285015260005b8181101561033057858101830151858201604001528201610314565b506000604082860101526040601f19601f8301168501019250505092915050565b634e487b7160e01b600052604160045260246000fd5b60006020828403121561037957600080fd5b813567ffffffffffffffff8082111561039157600080fd5b818401915084601f8301126103a557600080fd5b8135818111156103b7576103b7610351565b604051601f8201601f19908116603f011681019083821181831017156103df576103df610351565b816040528281528760208487010111156103f857600080fd5b826020860160208301376000928101602001929092525095945050505050565b634e487b7160e01b600052603260045260246000fd5b600181811c9082168061044257607f821691505b60208210810361046257634e487b7160e01b600052602260045260246000fd5b50919050565b601f8211156104b257600081815260208120601f850160051c8101602086101561048f5750805b601f850160051c820191505b818110156104ae5782815560010161049b565b5050505b505050565b815167ffffffffffffffff8111156104d1576104d1610351565b6104e5816104df845461042e565b84610468565b602080601f83116001811461051a57600084156105025750858301515b600019600386901b1c1916600185901b1785556104ae565b600085815260208120601f198616915b828110156105495788860151825594840194600190910190840161052a565b50858210156105675787850151600019600388901b60f8161c191681555b5050505050600190811b0190555056fea2646970667358221220a0d859c8c2935176d37218540ae348f8fefc0eceb84346c481deafb2c9ef033a64736f6c63430008130033",
    "sourcePath": "c:/Development/E-Vault/contracts/LegalRecords.sol",
    "compiler": {
        "name": "solc",
        "version": "0.8.19+commit.7dd6d404"
    },
    "functionHashes": {
        "addLegalRecord(string)": "4b0772bf",
        "getLegalRecord(uint256)": "3ec32efb",
        "getLegalRecordsCount()": "f2f673a9"
    },
    "gasEstimates": {
        "creation": {
            "codeDepositCost": "290600",
            "executionCost": "331",
            "totalCost": "290931"
        },
        "external": {
            "addLegalRecord(string)": "infinite",
            "getLegalRecord(uint256)": "infinite",
            "getLegalRecordsCount()": "2373"
        }
    }
}